:020000040800F2
:1000000000000220951F00081107000813070008D0
:10001000150700081707000819070008000000006E
:100020000000000000000000000000001B070008A6
:100030001D070008000000001F0700082107000836
:10004000E51F0008E51F0008E51F0008E51F000880
:10005000E51F0008E51F0008E51F0008E51F000870
:10006000E51F0008E51F0008E51F0008E51F000860
:10007000E51F0008E51F0008E51F0008E51F000850
:10008000E51F0008E51F0008E51F0008E51F000840
:10009000E51F0008E51F0008E51F0008E51F000830
:1000A000E51F0008E51F0008E51F0008E51F000820
:1000B000E51F0008E51F0008E51F0008E51F000810
:1000C000E51F0008E51F0008E51F0008E51F000800
:1000D000E51F0008E51F0008E51F0008E51F0008F0
:1000E000E51F0008E51F0008E51F0008E51F0008E0
:1000F000E51F0008E51F0008E51F0008E51F0008D0
:10010000E51F0008E51F0008E51F0008E51F0008BF
:10011000E51F0008E51F0008E51F0008E51F0008AF
:10012000E51F0008E51F0008E51F0008E51F00089F
:10013000E51F0008E51F0008E51F0008E51F00088F
:10014000E51F0008E51F0008E51F00082907000853
:10015000E51F0008E51F0008E51F0008E51F00086F
:10016000E51F0008E51F0008E51F0008E51F00085F
:10017000E51F0008E51F0008E51F0008000000005B
:08018000E51F0008E51F00085F
:1001880010B5054C237833B9044B13B10448AFF3C9
:1001980000800123237010BD100000200000000023
:1001A8003020000808B5034B1BB103490348AFF3DF
:1001B800008008BD00000000140000203020000866
:1001C80053B94AB9002908BF00281CBF4FF0FF31B6
:1001D8004FF0FF3000F072B9ADF1080C6DE904CEB4
:1001E80000F006F8DDF804E0DDE9022304B070470A
:1001F8002DE9F047089E04468846002B4BD18A42D9
:10020800154667D9B2FA82F24AB1C2F1200701FA5B
:1002180002F320FA07F7954047EA030894404FEAAB
:10022800154E230CB8FBFEF71FFA85FC0EFB17884A
:1002380043EA084307FB0CF1994209D9EB1807F187
:10024800FF3080F01B81994240F21881023F2B4415
:100258005B1AA4B2B3FBFEF00EFB103344EA03446E
:1002680000FB0CFCA44509D92C1900F1FF3380F0E0
:100278000781A44540F2048102382C4440EA074033
:10028800A4EB0C0400271EB1D4400023C6E90043A8
:100298003946BDE8F0878B4209D9002E00F0EB8083
:1002A8000027C6E9000138463946BDE8F087B3FAA9
:1002B80083F7002F47D18B4202D3824200F2FA80A3
:1002C800841A61EB030301209846002EE0D0C6E9AA
:1002D8000048DDE702B9FFDEB2FA82F2002A40F0F8
:1002E8008F80491B4FEA154E1FFA85F80127B1FB8D
:1002F800FEFC230C0EFB1C1143EA014308FB0CF126
:10030800994207D9EB180CF1FF3002D2994200F25A
:10031800CD808446591AA3B2B1FBFEF00EFB10142F
:1003280043EA044408FB00F8A04507D92C1900F15A
:10033800FF3302D2A04500F2B6801846A4EB0804A9
:1003480040EA0C409FE7C7F1200CBB4022FA0CFEA4
:100358004EEA030E01FA07F420FA0CF521FA0CF321
:100368004FEA1E482543B3FBF8F92C0C08FB193358
:100378001FFA8EFA44EA034309FB0AF49C4202FA84
:1003880007F200FA07F10BD91EEB030309F1FF305E
:1003980080F087809C4240F28480A9F1020973446E
:1003A8001B1BADB2B3FBF8F008FB103345EA03445E
:1003B80000FB0AFAA24508D91EEB040400F1FF333A
:1003C8006BD2A24569D90238744440EA0940A0FBBF
:1003D8000289A4EB0A044C45C2464B4654D351D07B
:1003E800002E69D0B1EB0A0564EB030404FA0CFC97
:1003F800FD40FC404CEA0505C6E90054002747E7E4
:10040800C2F1200320FA03F7954001FA02F021FA1D
:1004180003F34FEA154E3843010CB3FBFEF71FFAFE
:1004280085F80EFB173341EA034107FB08F38B42BB
:1004380004FA02F407D9691807F1FF3C2FD28B425E
:100448002DD9023F2944CB1A81B2B3FBFEF00EFB33
:10045800103341EA034100FB08F38B4207D96918BE
:1004680000F1FF3C17D28B4215D902382944C91A2A
:1004780040EA07473BE73746304609E70746E7E6DD
:100488001846FBE64145ABD2B8EB020A69EB0E020F
:1004980001381346A4E76046E9E7184695E767463A
:1004A800D1E781467CE702382C4447E7ACF1020CDF
:1004B8002B442FE7384608E73746E9E6704700BF80
:1004C800034613F8012B002AFBD1181A013870478C
:1004D80070B592B0002401941B4B1A6B42F00102D4
:1004E8001A631A6B02F001020192019A02941A6BC4
:1004F80042F008021A631B6B03F008030293029B85
:1005080001260D960E940F941094104D0DA92846AF
:1005180000F022FA112309934FF4805308930A94A8
:100528000B9408A90A4800F017FA022304930596C9
:1005380006940723079312A9042341F83C3D284653
:1005480000F00AFA12B070BD003802400000024004
:10055800000C0240A0F16103DBB2192B01D820384E
:10056800C0B2704772B6FEE708B50A480A4B036086
:100578004FF4E133436000238360C36003610C22BE
:1005880042618361C36101F0B2F800B908BDFFF7A9
:10059800E9FF00BF340000200044004008B500F027
:1005A800F5F8FFF795FFFFF7DFFF10480268D368FB
:1005B80043F40053D36001F0BFF901210C4800F067
:1005C800B5FA0028F9D00B4B1D682846FFF778FFCD
:1005D800064C4FF0FF3382B22946204601F0B6F8A8
:1005E80001220549204601F0FAFAE6E73400002026
:1005F80000000240000000203000002010B5124B1F
:1006080018780D280DD0114B1C68621C1A60FFF772
:10061800A1FF0F4B185501220B490E4801F0DFFAD4
:1006280010BD0A4C2268531C0949885402322260C2
:100638000A20C8544FF0FF3392B2064801F086F8FA
:1006480000232360ECE700BF300000202C000020CE
:10065800780000203400002000B583B0002100910C
:100668000C4B5A6C42F480425A645A6C02F4804231
:100678000092009A01911A6C42F080521A641B6C25
:1006880003F080530193019B072000F0ABF803B0FF
:100698005DF804FB0038024000B589B000230393DD
:1006A80004930593069307930268154B9A4202D068
:1006B80009B05DF804FB0021019103F5FA331A6CC7
:1006C80042F400321A641A6C02F400320192019A60
:1006D80002911A6B42F001021A631B6B03F00103CB
:1006E8000293029B0C230393022304930323069390
:1006F8000723079303A9034800F02EF9D8E700BFA2
:100708000044004000000240FEE7FEE7FEE7FEE787
:10071800FEE770477047704708B500F051F808BD0C
:1007280008B5024800F0C6FD08BD00BFE000002083
:10073800034AD2F8883043F47003C2F8883070470F
:1007480000ED00E010B504460E4B18784FF47A73AC
:10075800B3FBF0F30C4A1068B0FBF3F000F088F834
:1007680068B90F2C01D901200AE0002221464FF078
:10077800FF3000F049F8034B5C60002000E00120E6
:1007880010BD00BF080000200400002008B50B4B76
:100798001A6842F400721A601A6842F480621A6099
:1007A8001A6842F480721A60032000F01BF80020D7
:1007B800FFF7C8FFFFF750FF002008BD003C0240CC
:1007C800034A1168034B1B780B441360704700BF42
:1007D800DC00002008000020014B1868704700BFAB
:1007E800DC000020074AD36823F4E0631B041B0CD9
:1007F800000200F4E060184340F0BF6040F40030AD
:10080800D060704700ED00E030B4174BDB68C3F3ED
:100818000223C3F10704042C28BF04241D1D062D40
:1008280018D9033B4FF0FF3505FA04F421EA040117
:10083800994005FA03F322EA0303194300280BDB66
:100848000901C9B200F1604000F5614080F8001369
:1008580030BC70470023E5E700F00F000901C9B27A
:10086800024B1954F4E700BF00ED00E014ED00E07E
:100878000138B0F1807F0AD2064B5860064AF02151
:1008880082F823100020986007221A607047012020
:10089800704700BF10E000E000ED00E070B50446CE
:1008A800866DFFF799FF94F83530DBB2022B06D03E
:1008B80080236365002384F83430012070BD054629
:1008C8002268136823F0160313602268536923F023
:1008D80080035361236CE3B12268136823F0080393
:1008E80013602268136823F00103136023681B68F0
:1008F80013F0010F11D0FFF76FFF401B0528F5D942
:1009080020236365032084F83500002384F83430FD
:10091800D4E7A36C002BDFD1E3E7E26D3F239340DC
:10092800B360012384F83530002084F83400C5E72B
:1009380090F83530DBB2022B03D0802343650120C9
:100948007047052380F835300268136823F00103E7
:10095800136000207047000000230F2B00F2DC809A
:10096800F0B482B05DE086685F000324BC4026EAEC
:100978000406CC68BC4034438460466826EA020614
:100988004C68C4F300129A403243426056E0DC08D7
:10099800083450F8247003F0070296000F22B24082
:1009A80027EA02070A69B2403A4340F8242059E08E
:1009B800072200E00022B2403A430234574E46F87C
:1009C8002420574A1468EA4302EA04064F6817F4D9
:1009D800803F01D045EA0406514C2660646802EA6B
:1009E80004064F6817F4003F01D045EA04064C4C52
:1009F8006660A46802EA04064F6817F4801F01D0F5
:100A080045EA0406464CA660E46822404E6816F49F
:100A1800001F01D045EA0402414CE26001330F2B6C
:100A280077D801229A400C6804EA0205AA42F5D157
:100A38004C6804F00304013C012C94D94A6802F084
:100A48000302032A09D0C4685E000322B24024EAE4
:100A580002048A68B2402243C2604A6802F0030274
:100A6800022A94D004685E000322B24024EA0204F9
:100A78004A6802F00302B240224302604A6812F454
:100A8800403FCBD000220192264A546C44F4804463
:100A98005464526C02F480420192019A9C08A61C8C
:100AA8001E4A52F8267003F0030296000F22B24045
:100AB80027EA02071C4A90423FF47CAF02F58062A5
:100AC80090421AD002F58062904218D002F58062F6
:100AD800904216D002F58062904214D002F58062EE
:100AE800904212D002F58062904210D002F58062E6
:100AF80090423FF45DAF08225DE701225BE70222E6
:100B080059E7032257E7042255E7052253E706224F
:100B180051E702B0F0BC7047704700BF0038014091
:100B2800003C0140003802400000024003691942BD
:100B380001D10020704701207047F8B505682C6A7C
:100B480004F00F06C4F34343C4F30A14022B13D171
:100B580094B12C2303FB0603596C69B12C2303FBC6
:100B680006031A6D2244DB6C9A4206D92C2303FB38
:100B78000600042380F86030F8BD07462246284660
:100B880001F084F82C2303FB06735A6C22445A6440
:100B98001A6D22441A6505EB4615D5F81025C2F3DF
:100BA800C942B3F84030A342E6D1002AE4D0D5F8D0
:100BB800003523F0804343F00043C5F800352C206E
:100BC80000FB067090F8543083F0010380F854302D
:100BD800D2E730B583B005460468D4F840340193B1
:100BE800D4F840340093009B23F02E030093019B1C
:100BF80013F0020F07D0019B13F0010F25D1009BC2
:100C080043F002030093019B13F0080F10D0009BE0
:100C180043F008030093019B13F0040F2DD0AB6938
:100C2800022B15D0EB68012B22D0284601F091F950
:100C3800019B13F0200F03D0009B43F02003009387
:100C4800009BC4F8403403B030BD01F075F9D6E715
:100C5800019B03F4C023B3F5802F04D00121286839
:100C680001F043F8E1E70221286801F03EF8DCE7EB
:100C78004EF66022C4F80424D7E7284601F06FF93D
:100C8800D6E7F8B505460E46076807EB411707F59E
:100C9800A064A36813F0040F40D00423A360E368A2
:100CA80043F00203E360A36813F4007F40F09380ED
:100CB800A36813F0010F00F0D7802B6943B12C23F0
:100CC80003FB06539A6C2169C1F31201521A1A6583
:100CD8002C2303FB0653012283F861200021D965E8
:100CE800A26093F83F30002B00F08180022B7ED069
:100CF800032B00F09380012B40F083802C2303FB0F
:100D08000653012283F8602093F85410514083F869
:100D180054103146284601F01BF972E0A36813F419
:100D2800807F06D1A36813F0200F13D02023A3607F
:100D3800B9E74FF48073A3602C2303FB0103072258
:100D480083F86120E36843F00203E360006800F081
:100D5800F1FFA8E7A36813F0080F17D1A36813F4ED
:100D6800806F25D1A36813F0800F9CD0E36843F00F
:100D78000203E3602C2303FB0103062283F86120AE
:100D8800006800F0D7FF8023A3608CE7E36843F096
:100D98000203E3602C2303FB0103052283F861208F
:100DA8001023A3600823A360006800F0C3FF7AE75C
:100DB800E36843F00203E3602C2303FB01030822EA
:100DC80083F861201023A3604FF48063A360006858
:100DD80000F0B0FF67E7E36843F00203E3603146E1
:100DE800286800F0A7FF4FF40073A360F8BDE3681C
:100DF80043F00203E3603146286800F09BFF1023AC
:100E0800A3602B69012B1AD02C2303FB065595F8F8
:100E1800543083F0010385F85430E7E7D7F80035FC
:100E280043F00053C7F800352C2303FB0653012277
:100E380083F860203146284601F08AF8E1E72C2340
:100E480003FB06539A6CB3F84030B2FBF3F313F08C
:100E5800010FCBD02C2303FB065595F8543083F0B3
:100E6800010385F85430C1E7A36813F0020F64D07A
:100E7800E36823F00203E3602C2303FB065393F893
:100E88006130012B13D0052B23D0062B28D0082B3B
:100E980026D0032B42D0072B0FD12C2303FB06535C
:100EA800DA6D0132DA65042283F8602005E02C232C
:100EB80003FB0653012283F860200223A3602C233E
:100EC80003FB065393F860203146284601F040F8AA
:100ED8008CE72C2303FB0653052283F86020ECE7FC
:100EE8002C2202FB0652D36D0133D365022B06D99F
:100EF80013460022DA65042283F86020DDE72C23FC
:100F080003FB0653022283F86020D7F8003523F04C
:100F1800804343F00043C7F80035CEE72C2303FB9A
:100F28000653022283F86020D7F8003523F0804367
:100F380043F00043C7F80035BFE7A36813F0100F6C
:100F48003FF454AF2C2303FB065393F83F30032B95
:100F58000CD00BB1022B06D12C2303FB0653002225
:100F6800DA652B6983B11023A3603FE72C2303FBC9
:100F780006530022DA65E36843F00203E360314672
:100F8800286800F0D7FEEEE72C2303FB0653032264
:100F980083F86120E36843F00203E3603146286880
:100FA80000F0C8FEDFE770B5036803EB411303F5F3
:100FB800A064A26812F0040F1ED10E460546A2686E
:100FC80012F0200F1FD02023A3602C2303FB010362
:100FD80093F83D30012B15D12C2303FB010300228C
:100FE80083F83D20022283F86020E3681343E3601E
:100FF800006800F09FFE05E00423A360E36843F067
:101008000203E36070BDA26812F4007F24D1A268D5
:1010180012F0010F2BD02C2303FB01030022DA6509
:10102800A36813F0400F07D02C2303FB0103012210
:1010380083F83D204023A360E36843F00203E360A4
:101048003146286800F076FE0123A3602C2000FBBF
:10105800065080F86130D5E7E36843F00203E360A7
:10106800006800F067FE4FF40073A360CAE7A26847
:1010780012F0400F29D1A26812F0080F3AD1A268E5
:1010880012F0100F46D02C2303FB01030022DA656F
:10109800032283F8612093F83D305BB92C2303FBCE
:1010A800010393F83C302BB92C2303FB01030122E5
:1010B80083F83D20E36843F00203E3603146286883
:1010C80000F038FE1023A3609CE72C2303FB0103E8
:1010D800042283F86120012283F83D200022DA658A
:1010E800E36843F00203E360006800F023FE402356
:1010F800A36087E70823A360E36843F00203E36083
:10110800006800F017FE2C2101FB0651052381F829
:10111800613077E7A26812F0800F29D0036983B1A4
:101128002C2202FB0102D36D0133D365022B16D8A2
:101138002C2101FB0601022381F860308023A36083
:1011480060E72C2303FB0103062283F86120E36890
:1011580043F00203E360006800F0ECFDEEE713469D
:101168000022DA65042283F8602000F0F1FEE5E74A
:10117800A26812F4806F27D1A26812F0020F3FF420
:1011880041AFE26822F00202E2602C2202FB010277
:1011980092F86120012A2AD0032A68D0042A6DD047
:1011A800052A72D0062A01D0082A2BD12C2101FB4E
:1011B8000651CA6D0132CA65022A6CD90022CA6575
:1011C800042281F860201DE0E36843F00203E36035
:1011D800006800F0AFFD1023A3604FF48063A360A4
:1011E8002C2101FB0651082381F861300AE72C23E2
:1011F80003FB010383F8602093F83F30023BDBB226
:1012080093420BD90223A3602C2303FB065393F8C4
:1012180060203146284600F09BFEF3E6016941B99B
:101228002C2303FB060393F8552082F0010283F870
:1012380055200129E6D12C2303FB0653DB6C002B38
:10124800E0D02C2202FB0652B2F840201344013BA6
:10125800B3FBF2F313F0010FD4D02C2303FB065396
:1012680093F8552082F0010283F85520CAE72C2311
:1012780003FB0103022283F86020C3E72C2303FB4E
:101288000103022283F86020BCE72C2303FB01033F
:1012980083F86020B6E72C2202FB0652022182F86E
:1012A8006010D3F8002522F0804242F00042C3F8D3
:1012B8000025A7E7F8B504460568284600F011FDA3
:1012C800012800D0F8BD2E46206800F006FD002851
:1012D800F8D0206800F001FD10F4001F03D0236847
:1012E8004FF400125A61206800F0F7FC10F4801FD8
:1012F80003D023684FF480125A61206800F0EDFC97
:1013080010F0806F03D023684FF080625A61206824
:1013180000F0E3FC10F0020F02D0236802225A61A9
:10132800206800F0DAFC10F0005F08D023684FF066
:1013380000525A61D5F8403413F0010F1DD02068CF
:1013480000F0CBFC10F0807F26D1206800F0C5FCAF
:1013580010F0080F24D1206800F0BFFC10F0100F27
:1013680025D1206800F0B9FC10F0007FAAD02068D1
:1013780000F0DBFC074600252CE01021284600F091
:1013880057FC284600F06CFC0121206800F0ADFCF9
:10139800204600F0D7FDD2E72046FFF71AFCD4E735
:1013A800204600F0C3FD236808225A61D3E722686B
:1013B800936923F0100393612046FFF7BEFB226870
:1013C800936943F010039361CBE7E9B22046FFF736
:1013D800EAFD0135A368AB4212D905F00F0327FADD
:1013E80003F313F0010FF4D006EB4513D3F80035DF
:1013F80013F4004FE9D0E9B22046FFF742FCE8E7D2
:1014080023684FF000725A615CE790F8F832012BBC
:101418000BD010B50446012380F8F832006800F0BC
:10142800FDFC002084F8F80210BD0220704700007F
:10143800014B1868704700BF0400002008B5FFF78B
:10144800F7FF044B9B68C3F38223034AD35CD8405D
:1014580008BD00BF003802405820000808B5FFF753
:10146800E7FF044B9B68C3F34233034AD35CD8407D
:1014780008BD00BF0038024058200008026802F189
:101488000C0353E8003F23F490730C3242E8003118
:101498000029F3D1026802F1140353E8003F23F056
:1014A8000103143242E800310029F3D1036B012B08
:1014B80005D0202380F83E3000230363704702687C
:1014C80002F10C0353E8003F23F010030C3242E80A
:1014D80000310029F3D1ECE790F83D30DBB2212B45
:1014E80027D18368B3F5805F16D0036A5A1C02625D
:1014F8001A7803685A60C38C013B9BB2C384D3B982
:101508000268D36823F08003D3600268D36843F08D
:101518004003D360002070470369002BE5D1036ABC
:101528001B880268C3F308035360036A023303622B
:10153800E1E7022070470020704700002DE9F04BDA
:1015480004460268136923F44053C1680B431361CE
:1015580083680269134342691343C2691A430168E5
:10156800CB6823F4164323F00C031343CB600268C3
:10157800536923F4407381690B43536103683A4A02
:10158800934206D002F58062934202D0FFF756FFDD
:1015980001E0FFF763FFE369B3F5004F30D04FF088
:1015A8000009061849EB090716EB000B47EB090C75
:1015B8004FEACC0343EA5B734FEACB0293469C465F
:1015C80063689A009B0F10EB0B0049EB0C01FEF7C8
:1015D800F7FD264DA5FB00325109642202FB1102DA
:1015E80013013233A5FB03235B0903F0F00202EB7E
:1015F800011203F00F03216813448B60BDE8F08BE0
:1016080083464FF0000C06184CEB0C0716EB00084D
:1016180047EB0C094FEAC90343EA58734FEAC8027B
:101628009046994662680021921841EB01031BEB32
:1016380008004CEB0901FEF7C3FD0C4DA5FB003279
:101648005109642202FB1102D3003233A5FB0323A4
:101658005B095A0002F4F87202EB011203F0070367
:10166800216813448B60C9E7001001401F85EB51C6
:101678002DE9F04104460F4616469846069D236814
:101688001B6837EA03030CBF01230023B3422BD1A5
:10169800B5F1FF3FF3D02DB1FFF79EF8A0EB08009E
:1016A800A842ECD9226802F10C0353E8003F23F466
:1016B800D0730C3242E800310029F3D1226802F1DC
:1016C800140353E8003F23F00103143242E80031C9
:1016D8000029F3D1202384F83D3084F83E300023DC
:1016E80084F83C30032000E00020BDE8F08158B3C6
:1016F80010B5044690F83D300BB3242384F83D30F0
:101708002268D36823F40053D3602046FFF716FFFE
:101718002268136923F4904313612268536923F004
:101728002A0353612268D36843F40053D36000202E
:101738002064202384F83D3084F83E3010BD80F8C2
:101748003C30FEF7A9FFD8E7012070472DE9F041AA
:1017580082B01E4690F83D30DBB2202B54D10446AF
:101768000D469046002954D0002A54D090F83C30B9
:10177800012B52D0012380F83C300023036421233D
:1017880080F83D30FFF728F80746A4F82480A4F82D
:101798002680A368B3F5805F05D04FF000080023CA
:1017A80084F83C3011E0236913B14FF00008F6E7E4
:1017B800A8460025F3E738F8023B2268C3F308037C
:1017C8005360E38C013B9BB2E384E38C9BB273B11F
:1017D80000963B46002280212046FFF749FFF0B9DA
:1017E800002DE8D015F8012B23685A60E9E7009628
:1017F8003B46002240212046FFF73AFF034680B9C6
:10180800202284F83D2000E00223184602B0BDE8FB
:10181800F0810123F9E70123F7E70223F5E7032322
:10182800F3E70323F1E7704708B50168CB6823F0B5
:101838004003CB60202380F83D30FFF7F4FF002001
:1018480008BD704708B5806B0023C385C384FFF7C4
:10185800F8FF08BD704790F83E30DBB2222B67D105
:101868008368B3F5805F4CD0826AB3F5805F04D09B
:10187800002B53D10369002B50D103685B681370A8
:10188800836A01338362C38D013B9BB2C385002BFE
:1018980050D100B583B00268D36823F02003D36029
:1018A8000268D36823F48073D3600268536923F015
:1018B80001035361202380F83E30036B012B33D1A1
:1018C80000230363026802F10C0353E8003F23F08E
:1018D80010030C3242E800310029F3D103681A687A
:1018E80012F0100F06D0002201921A6801925B686C
:1018F8000193019B818DFFF7ADFF002003B05DF8D8
:1019080004FB0269002AAFD1826A03685B68C3F3EB
:1019180008031380836A02338362B4E703685B6851
:1019280003F07F031370ABE7FEF768FE0020E5E7DE
:10193800022070470020704730B583B00446026823
:101948001368D068516913F00F0505D113F0200F03
:1019580002D010F0200F5ED1002D72D011F00101DD
:1019680002D110F4907F6CD013F0010F06D010F460
:10197800807F03D0226C42F00102226413F0040F2E
:1019880004D019B1226C42F00202226413F0020F53
:1019980004D019B1226C42F00402226413F0080F3B
:1019A80007D010F0200F00D119B1226C42F00802C4
:1019B8002264226C002A55D013F0200F02D010F0B8
:1019C800200F2CD123685B6903F04003226C12F0CE
:1019D800080F00D17BB32046FFF750FD23685B69F1
:1019E80013F0400F23D0226802F1140353E8003F9C
:1019F80023F04003143242E800310029F3D1A36BED
:101A08008BB1684A1A65A06BFEF792FF50B3A06BC2
:101A1800036D984726E02046FFF71DFF22E0204689
:101A2800FFF719FFCEE72046FFF70BFF1AE0204625
:101A3800FFF707FF16E02046FFF703FF00232364A4
:101A480010E0216B01290FD013F0800F03D010F0A4
:101A5800800F40F09F8013F0400F03D010F0400F2C
:101A680040F09C8003B030BD13F0100FECD010F0A4
:101A7800100FE9D000230193136801935368019371
:101A8800019B536913F0400F4DD0A26B13685B683C
:101A98009BB2002BE6D0A18D9942E3D9E385D369A7
:101AA800B3F5807F37D0226802F10C0353E8003F7A
:101AB80023F480730C3242E800310029F3D1226804
:101AC80002F1140353E8003F23F00103143242E803
:101AD80000310029F3D1226802F1140353E8003FD2
:101AE80023F04003143242E800310029F3D12023C7
:101AF80084F83E3000232363226802F10C0353E884
:101B0800003F23F010030C3242E800310029F3D1E2
:101B1800A06BFEF7C3FEA18DE38DC91A89B22046DA
:101B2800FFF798FE9EE7A18DE38DC91A89B2E38D70
:101B38009BB2002B96D0002994D0226802F10C03A6
:101B480053E8003F23F490730C3242E80030002839
:101B5800F3D1226802F1140353E8003F23F0010394
:101B6800143242E800300028F3D1202384F83E30B4
:101B780000232363226802F10C0353E8003F23F09B
:101B880010030C3242E800300028F3D12046FFF75A
:101B980061FE67E72046FFF79FFC63E72046FFF7F3
:101BA80043FE5FE74D180008034681628285C285BF
:101BB80000201864222283F83E2083F83C0019682C
:101BC800CA6842F48072CA6019684A6942F0010220
:101BD8004A611A68D36843F02003D360704708B598
:101BE80090F83E30DBB2202B0DD171B17AB190F86C
:101BF8003C30012B0DD0012380F83C3000230363D7
:101C0800FFF7D2FF00E0022008BD0120FCE7012019
:101C1800FAE70220F8E7836843F0010383600020B5
:101C28007047836823F00103836000207047000039
:101C380082B000230193890141F020010161019BD9
:101C480001330193054A934205D8036913F0200F25
:101C5800F5D1002000E0032002B07047400D0300DA
:101C680082B00023019310230361019B0133019388
:101C7800054A934205D8036913F0100FF5D10020E7
:101C880000E0032002B07047400D030070B483B039
:101C98000646950802F00302002305E006F5805485
:101CA800246841F8044B0133AB42F7D39AB100F5ED
:101CB80080500368019308460024E3B2D900019BD1
:101CC800CB4000F8013B0134013A92B2002AF4D12A
:101CD80003B070BC70470846FAE742698069104053
:101CE8007047406900F00100704710B400F5806447
:101CF800D0F8003423F00303C0F80034D0F80034DF
:101D080001F003021343C0F80034012905D0022969
:101D180007D000205DF8044B70474BF680336360B2
:101D2800F7E741F270736360F3E700F5806040699C
:101D380080B2704730B400EB411101F5A062D1F8D0
:101D48000035C3F38143D1F80045856815F0200FAD
:101D580002D0E40F002C50D03BB3022B25D0D1F891
:101D6800003543F08043C1F80035D0F8103413F43F
:101D78007F0F4CD1D1F8003523F00043C1F800356E
:101D8800D1F8003543F00043C1F80035D1F80035EB
:101D980023F40043C1F8003500230133B3F57A7FFB
:101DA8002BD811680029F8DB27E0D1F8003543F07B
:101DB8008043C1F80035836813F0200F1DD1C36A32
:101DC80013F47F0F1CD1D1F8003523F00043C1F87C
:101DD8000035D1F8003543F00043C1F80035D1F89B
:101DE800003523F40043C1F8003500230133B3F56F
:101DF8007A7F02D811680029F8DB002030BC7047D0
:101E0800D1F8003543F00043C1F80035F5E7D1F8C3
:101E1800003543F00043C1F80035EEE770B50546DC
:101E28000446FFF7FEFE10212846FFF701FF28466B
:101E3800FFF716FF00220AE004EB4211D1F8003543
:101E480023F0802343F08043C1F8003501320F2A84
:101E5800F2D90020034600E001300F2813D804EB24
:101E6800401606F5A061D6F8002522F4004242F09B
:101E78004042C6F800250133B3F57A7FECD80A68EA
:101E8800002AF8DBE8E74FF0FF33C5F814346B613C
:101E98002846FFF7C0FE002070BD08B50378DBB206
:101EA8000B2B00D008BDD0F87C33002BFAD09B69EF
:101EB8009847F7E708B5D0F8C4330133C0F8C433FE
:101EC800FFF7EBFF08BD012380F823337047002399
:101ED80080F823337047012380F82033002380F8EB
:101EE800213380F822331846704738B50446012359
:101EF80080F82133002580F8205380F8235300F020
:101F08003DF82179204600F006F86179204600F076
:101F180002F8284638BD0A2906D8E03100EB8101CD
:101F28004B68C3F30E034B600020704708B5D0F828
:101F38000003FFF7BFFF08BD08B5D0F80003FFF79F
:101F4800CAFF08BD08B5D0F80003FFF7CEFF08BDEB
:101F5800704708B5D0F80003FFF7B5FF08BD08B50E
:101F6800D0F80003FFF7B3FF08BD18B1022803D06B
:101F780002207047002070470120704708B5D0F84C
:101F8800D003FFF742FAFFF7F0FF08BDDFF834D0BF
:101F98000D480E490E4A002302E0D458C4500433B9
:101FA800C4188C42F9D30B4A0B4C002301E0136090
:101FB8000432A242FBD3FEF7BBFB00F011F8FEF798
:101FC800EDFA7047000002200000002010000020F9
:101FD8007C20000810000020E4030020FEE7000039
:101FE80070B50D4E0D4CA41BA4100025A54209D1B7
:101FF8000B4E0C4C00F018F8A41BA4100025A542A9
:1020080005D170BD56F8253098470135EEE756F8EA
:10201800253098470135F2E774200008742000083D
:102028007420000878200008F8B500BFF8BC08BC88
:102038009E467047F8B500BFF8BC08BC9E4670477E
:102048000000000000000000010203040607080960
:10205800000000000102030448656C6C6F576F7242
:042068006C640A009A
:08206C008CE1FF7F0100000080
:04207400AD010008B2
:0420780089010008D2
:10207C00602000080024F4000100000010000000A3
:0400000508001F953B
:00000001FF
